{
  "_format": "hh-sol-artifact-1",
  "contractName": "Election",
  "sourceName": "contracts/Election.sol",
  "abi": [
    {
      "inputs": [
        {
          "internalType": "address",
          "name": "_voterSBTAddress",
          "type": "address"
        }
      ],
      "stateMutability": "nonpayable",
      "type": "constructor"
    },
    {
      "inputs": [],
      "name": "AccessControlBadConfirmation",
      "type": "error"
    },
    {
      "inputs": [
        {
          "internalType": "address",
          "name": "account",
          "type": "address"
        },
        {
          "internalType": "bytes32",
          "name": "neededRole",
          "type": "bytes32"
        }
      ],
      "name": "AccessControlUnauthorizedAccount",
      "type": "error"
    },
    {
      "anonymous": false,
      "inputs": [
        {
          "indexed": true,
          "internalType": "uint256",
          "name": "candidateId",
          "type": "uint256"
        },
        {
          "indexed": false,
          "internalType": "string",
          "name": "name",
          "type": "string"
        },
        {
          "indexed": false,
          "internalType": "string",
          "name": "imageCID",
          "type": "string"
        }
      ],
      "name": "CandidateAdded",
      "type": "event"
    },
    {
      "anonymous": false,
      "inputs": [
        {
          "indexed": false,
          "internalType": "enum Election.ElectionState",
          "name": "newState",
          "type": "uint8"
        }
      ],
      "name": "ElectionStateChanged",
      "type": "event"
    },
    {
      "anonymous": false,
      "inputs": [
        {
          "indexed": true,
          "internalType": "bytes32",
          "name": "role",
          "type": "bytes32"
        },
        {
          "indexed": true,
          "internalType": "bytes32",
          "name": "previousAdminRole",
          "type": "bytes32"
        },
        {
          "indexed": true,
          "internalType": "bytes32",
          "name": "newAdminRole",
          "type": "bytes32"
        }
      ],
      "name": "RoleAdminChanged",
      "type": "event"
    },
    {
      "anonymous": false,
      "inputs": [
        {
          "indexed": true,
          "internalType": "bytes32",
          "name": "role",
          "type": "bytes32"
        },
        {
          "indexed": true,
          "internalType": "address",
          "name": "account",
          "type": "address"
        },
        {
          "indexed": true,
          "internalType": "address",
          "name": "sender",
          "type": "address"
        }
      ],
      "name": "RoleGranted",
      "type": "event"
    },
    {
      "anonymous": false,
      "inputs": [
        {
          "indexed": true,
          "internalType": "bytes32",
          "name": "role",
          "type": "bytes32"
        },
        {
          "indexed": true,
          "internalType": "address",
          "name": "account",
          "type": "address"
        },
        {
          "indexed": true,
          "internalType": "address",
          "name": "sender",
          "type": "address"
        }
      ],
      "name": "RoleRevoked",
      "type": "event"
    },
    {
      "anonymous": false,
      "inputs": [
        {
          "indexed": true,
          "internalType": "address",
          "name": "voter",
          "type": "address"
        }
      ],
      "name": "VoteCommitted",
      "type": "event"
    },
    {
      "anonymous": false,
      "inputs": [
        {
          "indexed": true,
          "internalType": "address",
          "name": "voter",
          "type": "address"
        },
        {
          "indexed": true,
          "internalType": "uint256",
          "name": "candidateId",
          "type": "uint256"
        },
        {
          "indexed": false,
          "internalType": "string",
          "name": "ballotProofCID",
          "type": "string"
        }
      ],
      "name": "VoteRevealed",
      "type": "event"
    },
    {
      "inputs": [],
      "name": "DEFAULT_ADMIN_ROLE",
      "outputs": [
        {
          "internalType": "bytes32",
          "name": "",
          "type": "bytes32"
        }
      ],
      "stateMutability": "view",
      "type": "function"
    },
    {
      "inputs": [],
      "name": "ELECTION_MANAGER_ROLE",
      "outputs": [
        {
          "internalType": "bytes32",
          "name": "",
          "type": "bytes32"
        }
      ],
      "stateMutability": "view",
      "type": "function"
    },
    {
      "inputs": [],
      "name": "TIMELOCK_ROLE",
      "outputs": [
        {
          "internalType": "bytes32",
          "name": "",
          "type": "bytes32"
        }
      ],
      "stateMutability": "view",
      "type": "function"
    },
    {
      "inputs": [
        {
          "internalType": "string",
          "name": "_name",
          "type": "string"
        },
        {
          "internalType": "string",
          "name": "_imageCID",
          "type": "string"
        }
      ],
      "name": "addCandidate",
      "outputs": [],
      "stateMutability": "nonpayable",
      "type": "function"
    },
    {
      "inputs": [
        {
          "internalType": "uint256",
          "name": "",
          "type": "uint256"
        }
      ],
      "name": "candidates",
      "outputs": [
        {
          "internalType": "uint256",
          "name": "id",
          "type": "uint256"
        },
        {
          "internalType": "string",
          "name": "name",
          "type": "string"
        },
        {
          "internalType": "string",
          "name": "imageCID",
          "type": "string"
        },
        {
          "internalType": "uint256",
          "name": "voteCount",
          "type": "uint256"
        }
      ],
      "stateMutability": "view",
      "type": "function"
    },
    {
      "inputs": [],
      "name": "candidatesCount",
      "outputs": [
        {
          "internalType": "uint256",
          "name": "",
          "type": "uint256"
        }
      ],
      "stateMutability": "view",
      "type": "function"
    },
    {
      "inputs": [],
      "name": "commitDeadline",
      "outputs": [
        {
          "internalType": "uint256",
          "name": "",
          "type": "uint256"
        }
      ],
      "stateMutability": "view",
      "type": "function"
    },
    {
      "inputs": [
        {
          "internalType": "bytes32",
          "name": "_commitHash",
          "type": "bytes32"
        }
      ],
      "name": "commitVote",
      "outputs": [],
      "stateMutability": "nonpayable",
      "type": "function"
    },
    {
      "inputs": [
        {
          "internalType": "address",
          "name": "",
          "type": "address"
        }
      ],
      "name": "commitments",
      "outputs": [
        {
          "internalType": "bytes32",
          "name": "",
          "type": "bytes32"
        }
      ],
      "stateMutability": "view",
      "type": "function"
    },
    {
      "inputs": [
        {
          "internalType": "uint256",
          "name": "_candidateId",
          "type": "uint256"
        },
        {
          "internalType": "bytes32",
          "name": "_salt",
          "type": "bytes32"
        }
      ],
      "name": "computeCommitHash",
      "outputs": [
        {
          "internalType": "bytes32",
          "name": "",
          "type": "bytes32"
        }
      ],
      "stateMutability": "pure",
      "type": "function"
    },
    {
      "inputs": [],
      "name": "endElection",
      "outputs": [],
      "stateMutability": "nonpayable",
      "type": "function"
    },
    {
      "inputs": [
        {
          "internalType": "uint256",
          "name": "_candidateId",
          "type": "uint256"
        }
      ],
      "name": "getCandidate",
      "outputs": [
        {
          "components": [
            {
              "internalType": "uint256",
              "name": "id",
              "type": "uint256"
            },
            {
              "internalType": "string",
              "name": "name",
              "type": "string"
            },
            {
              "internalType": "string",
              "name": "imageCID",
              "type": "string"
            },
            {
              "internalType": "uint256",
              "name": "voteCount",
              "type": "uint256"
            }
          ],
          "internalType": "struct Election.Candidate",
          "name": "",
          "type": "tuple"
        }
      ],
      "stateMutability": "view",
      "type": "function"
    },
    {
      "inputs": [],
      "name": "getElectionTimeline",
      "outputs": [
        {
          "internalType": "enum Election.ElectionState",
          "name": "currentState",
          "type": "uint8"
        },
        {
          "internalType": "uint256",
          "name": "_commitDeadline",
          "type": "uint256"
        },
        {
          "internalType": "uint256",
          "name": "_revealDeadline",
          "type": "uint256"
        },
        {
          "internalType": "uint256",
          "name": "_totalCommits",
          "type": "uint256"
        },
        {
          "internalType": "uint256",
          "name": "_totalVotes",
          "type": "uint256"
        }
      ],
      "stateMutability": "view",
      "type": "function"
    },
    {
      "inputs": [
        {
          "internalType": "bytes32",
          "name": "role",
          "type": "bytes32"
        }
      ],
      "name": "getRoleAdmin",
      "outputs": [
        {
          "internalType": "bytes32",
          "name": "",
          "type": "bytes32"
        }
      ],
      "stateMutability": "view",
      "type": "function"
    },
    {
      "inputs": [
        {
          "internalType": "bytes32",
          "name": "role",
          "type": "bytes32"
        },
        {
          "internalType": "address",
          "name": "account",
          "type": "address"
        }
      ],
      "name": "grantRole",
      "outputs": [],
      "stateMutability": "nonpayable",
      "type": "function"
    },
    {
      "inputs": [
        {
          "internalType": "address",
          "name": "",
          "type": "address"
        }
      ],
      "name": "hasCommitted",
      "outputs": [
        {
          "internalType": "bool",
          "name": "",
          "type": "bool"
        }
      ],
      "stateMutability": "view",
      "type": "function"
    },
    {
      "inputs": [
        {
          "internalType": "address",
          "name": "",
          "type": "address"
        }
      ],
      "name": "hasRevealed",
      "outputs": [
        {
          "internalType": "bool",
          "name": "",
          "type": "bool"
        }
      ],
      "stateMutability": "view",
      "type": "function"
    },
    {
      "inputs": [
        {
          "internalType": "bytes32",
          "name": "role",
          "type": "bytes32"
        },
        {
          "internalType": "address",
          "name": "account",
          "type": "address"
        }
      ],
      "name": "hasRole",
      "outputs": [
        {
          "internalType": "bool",
          "name": "",
          "type": "bool"
        }
      ],
      "stateMutability": "view",
      "type": "function"
    },
    {
      "inputs": [
        {
          "internalType": "bytes32",
          "name": "role",
          "type": "bytes32"
        },
        {
          "internalType": "address",
          "name": "callerConfirmation",
          "type": "address"
        }
      ],
      "name": "renounceRole",
      "outputs": [],
      "stateMutability": "nonpayable",
      "type": "function"
    },
    {
      "inputs": [],
      "name": "revealDeadline",
      "outputs": [
        {
          "internalType": "uint256",
          "name": "",
          "type": "uint256"
        }
      ],
      "stateMutability": "view",
      "type": "function"
    },
    {
      "inputs": [
        {
          "internalType": "uint256",
          "name": "_candidateId",
          "type": "uint256"
        },
        {
          "internalType": "bytes32",
          "name": "_salt",
          "type": "bytes32"
        },
        {
          "internalType": "string",
          "name": "_ballotProofCID",
          "type": "string"
        }
      ],
      "name": "revealVote",
      "outputs": [],
      "stateMutability": "nonpayable",
      "type": "function"
    },
    {
      "inputs": [
        {
          "internalType": "bytes32",
          "name": "role",
          "type": "bytes32"
        },
        {
          "internalType": "address",
          "name": "account",
          "type": "address"
        }
      ],
      "name": "revokeRole",
      "outputs": [],
      "stateMutability": "nonpayable",
      "type": "function"
    },
    {
      "inputs": [
        {
          "internalType": "uint256",
          "name": "_commitDuration",
          "type": "uint256"
        },
        {
          "internalType": "uint256",
          "name": "_revealDuration",
          "type": "uint256"
        }
      ],
      "name": "startCommitPhase",
      "outputs": [],
      "stateMutability": "nonpayable",
      "type": "function"
    },
    {
      "inputs": [],
      "name": "startRevealPhase",
      "outputs": [],
      "stateMutability": "nonpayable",
      "type": "function"
    },
    {
      "inputs": [],
      "name": "state",
      "outputs": [
        {
          "internalType": "enum Election.ElectionState",
          "name": "",
          "type": "uint8"
        }
      ],
      "stateMutability": "view",
      "type": "function"
    },
    {
      "inputs": [
        {
          "internalType": "bytes4",
          "name": "interfaceId",
          "type": "bytes4"
        }
      ],
      "name": "supportsInterface",
      "outputs": [
        {
          "internalType": "bool",
          "name": "",
          "type": "bool"
        }
      ],
      "stateMutability": "view",
      "type": "function"
    },
    {
      "inputs": [],
      "name": "totalCommits",
      "outputs": [
        {
          "internalType": "uint256",
          "name": "",
          "type": "uint256"
        }
      ],
      "stateMutability": "view",
      "type": "function"
    },
    {
      "inputs": [],
      "name": "totalVotes",
      "outputs": [
        {
          "internalType": "uint256",
          "name": "",
          "type": "uint256"
        }
      ],
      "stateMutability": "view",
      "type": "function"
    },
    {
      "inputs": [],
      "name": "voterSBT",
      "outputs": [
        {
          "internalType": "contract IVoterSBT",
          "name": "",
          "type": "address"
        }
      ],
      "stateMutability": "view",
      "type": "function"
    }
  ],
  "bytecode": "0x608060405234801561000f575f5ffd5b50604051611aa5380380611aa583398101604081905261002e91610132565b6100385f33610089565b506100637f7378a0511133229f838d56e2f9c6feccdff7b4cf063897a326e203a88bfc5cb933610089565b50600180546001600160a81b0319166001600160a01b039290921691909117905561015f565b5f828152602081815260408083206001600160a01b038516845290915281205460ff16610129575f838152602081815260408083206001600160a01b03861684529091529020805460ff191660011790556100e13390565b6001600160a01b0316826001600160a01b0316847f2f8788117e7eff1d82e926ec794901d17c78024a50270940304540a733656f0d60405160405180910390a450600161012c565b505f5b92915050565b5f60208284031215610142575f5ffd5b81516001600160a01b0381168114610158575f5ffd5b9392505050565b6119398061016c5f395ff3fe608060405234801561000f575f5ffd5b50600436106101c6575f3560e01c80635c20bf28116100fe578063b9a530131161009e578063cd080a671161006e578063cd080a6714610424578063d547741f1461044b578063e8fcf7231461045e578063f288a2e21461047d575f5ffd5b8063b9a53013146103b7578063c19d93fb146103d9578063c6dbe15a146103fa578063c6fd5d4e1461041c575f5ffd5b80639eb3d2fb116100d95780639eb3d2fb14610364578063a217fddf1461039e578063a2ff0209146103a5578063b14b28a3146103ae575f5ffd5b80635c20bf28146102fc5780636600dea51461032657806391d1485414610351575f5ffd5b806334f70b45116101695780633dea2c56116101445780633dea2c56146102c55780633e858923146102d857806344d6ee2b146102eb57806359f78468146102f4575f5ffd5b806334f70b451461027f57806335b8e8201461029257806336568abe146102b2575f5ffd5b806326541b56116101a457806326541b561461022b5780632d35a8a2146102405780632f2ff15d146102495780633477ee2e1461025c575f5ffd5b806301ffc9a7146101ca5780630d15fd77146101f2578063248a9ca314610209575b5f5ffd5b6101dd6101d836600461139a565b6104a4565b60405190151581526020015b60405180910390f35b6101fb60095481565b6040519081526020016101e9565b6101fb6102173660046113c8565b5f9081526020819052604090206001015490565b61023e61023936600461147e565b6104da565b005b6101fb60035481565b61023e6102573660046114fe565b61060c565b61026f61026a3660046113c8565b610636565b6040516101e99493929190611556565b61023e61028d366004611592565b61076a565b6102a56102a03660046113c8565b610a25565b6040516101e991906115de565b61023e6102c03660046114fe565b610bf8565b61023e6102d3366004611637565b610c30565b61023e6102e63660046113c8565b610db8565b6101fb600a5481565b61023e61100d565b600154600754600854600a546009546040516101e995600160a01b900460ff16949392919061168b565b600154610339906001600160a01b031681565b6040516001600160a01b0390911681526020016101e9565b6101dd61035f3660046114fe565b611122565b6101fb610372366004611637565b604080516020808201949094528082019290925280518083038201815260609092019052805191012090565b6101fb5f81565b6101fb60075481565b6101fb60085481565b6101dd6103c53660046116bb565b60066020525f908152604090205460ff1681565b6001546103ed90600160a01b900460ff1681565b6040516101e991906116d4565b6101dd6104083660046116bb565b60056020525f908152604090205460ff1681565b61023e61114a565b6101fb7f7378a0511133229f838d56e2f9c6feccdff7b4cf063897a326e203a88bfc5cb981565b61023e6104593660046114fe565b611234565b6101fb61046c3660046116bb565b60046020525f908152604090205481565b6101fb7ff66846415d2bf9eabda9e84793ff9c0ea96d87f50fc41e66aa16469c6a442f0581565b5f6001600160e01b03198216637965db0b60e01b14806104d457506301ffc9a760e01b6001600160e01b03198316145b92915050565b7f7378a0511133229f838d56e2f9c6feccdff7b4cf063897a326e203a88bfc5cb961050481611258565b5f80600154600160a01b900460ff16600381111561052457610524611657565b1461054a5760405162461bcd60e51b8152600401610541906116e2565b60405180910390fd5b60038054905f6105598361173c565b90915550506040805160808101825260035480825260208083018881528385018890525f60608501819052928352600290915292902081518155915190919060018201906105a790826117d7565b50604082015160028201906105bc90826117d7565b50606082015181600301559050506003547fe64f834082661dd9ed89427b87edb6270fd6dad17198b0938f0edd058914c87f85856040516105fe929190611892565b60405180910390a250505050565b5f8281526020819052604090206001015461062681611258565b6106308383611265565b50505050565b60026020525f90815260409020805460018201805491929161065790611754565b80601f016020809104026020016040519081016040528092919081815260200182805461068390611754565b80156106ce5780601f106106a5576101008083540402835291602001916106ce565b820191905f5260205f20905b8154815290600101906020018083116106b157829003601f168201915b5050505050908060020180546106e390611754565b80601f016020809104026020016040519081016040528092919081815260200182805461070f90611754565b801561075a5780601f106107315761010080835404028352916020019161075a565b820191905f5260205f20905b81548152906001019060200180831161073d57829003601f168201915b5050505050908060030154905084565b600280600154600160a01b900460ff16600381111561078b5761078b611657565b146107a85760405162461bcd60e51b8152600401610541906116e2565b60085442106107f25760405162461bcd60e51b815260206004820152601660248201527514995d99585b081c1a185cd9481a185cc8195b99195960521b6044820152606401610541565b335f9081526005602052604090205460ff1661085c5760405162461bcd60e51b8152602060048201526024808201527f4e6f20636f6d6d69746d656e7420666f756e6420666f722074686973206164646044820152637265737360e01b6064820152608401610541565b335f9081526006602052604090205460ff16156108b35760405162461bcd60e51b8152602060048201526015602482015274416c72656164792072657665616c656420766f746560581b6044820152606401610541565b5f841180156108c457506003548411155b6109075760405162461bcd60e51b8152602060048201526014602482015273125b9d985b1a590818d85b991a59185d1948125160621b6044820152606401610541565b60408051602080820187905281830186905282518083038401815260609092018352815191810191909120335f908152600490925291902054811461098e5760405162461bcd60e51b815260206004820181905260248201527f52657665616c20646f6573206e6f74206d6174636820636f6d6d69746d656e746044820152606401610541565b335f908152600660209081526040808320805460ff19166001179055878352600290915281206003018054916109c38361173c565b909155505060098054905f6109d78361173c565b919050555084336001600160a01b03167f6b6c296f338234dc1649256c10619fe26e97db7856e382c004ef899c779d968e85604051610a1691906118bf565b60405180910390a35050505050565b610a4e60405180608001604052805f815260200160608152602001606081526020015f81525090565b5f82118015610a5f57506003548211155b610aa25760405162461bcd60e51b8152602060048201526014602482015273125b9d985b1a590818d85b991a59185d1948125160621b6044820152606401610541565b60025f8381526020019081526020015f206040518060800160405290815f8201548152602001600182018054610ad790611754565b80601f0160208091040260200160405190810160405280929190818152602001828054610b0390611754565b8015610b4e5780601f10610b2557610100808354040283529160200191610b4e565b820191905f5260205f20905b815481529060010190602001808311610b3157829003601f168201915b50505050508152602001600282018054610b6790611754565b80601f0160208091040260200160405190810160405280929190818152602001828054610b9390611754565b8015610bde5780601f10610bb557610100808354040283529160200191610bde565b820191905f5260205f20905b815481529060010190602001808311610bc157829003601f168201915b505050505081526020016003820154815250509050919050565b6001600160a01b0381163314610c215760405163334bd91960e11b815260040160405180910390fd5b610c2b82826112f4565b505050565b7f7378a0511133229f838d56e2f9c6feccdff7b4cf063897a326e203a88bfc5cb9610c5a81611258565b5f80600154600160a01b900460ff166003811115610c7a57610c7a611657565b14610c975760405162461bcd60e51b8152600401610541906116e2565b5f60035411610ce85760405162461bcd60e51b815260206004820181905260248201527f4d7573742068617665206174206c65617374206f6e652063616e6469646174656044820152606401610541565b5f84118015610cf657505f83115b610d425760405162461bcd60e51b815260206004820152601a60248201527f4475726174696f6e73206d75737420626520706f7369746976650000000000006044820152606401610541565b610d4c84426118d1565b6007819055610d5c9084906118d1565b6008556001805460ff60a01b1916600160a01b908117918290556040517f82aa0cc22cbb103bd5f28a40c65b9e63f2df333bbb70c6c9128eb83d7cb1041d92610daa92900460ff16906116d4565b60405180910390a150505050565b600180600154600160a01b900460ff166003811115610dd957610dd9611657565b14610df65760405162461bcd60e51b8152600401610541906116e2565b6007544210610e405760405162461bcd60e51b815260206004820152601660248201527510dbdb5b5a5d081c1a185cd9481a185cc8195b99195960521b6044820152606401610541565b6001546040516366e305fd60e01b81523360048201526001600160a01b03909116906366e305fd90602401602060405180830381865afa158015610e86573d5f5f3e3d5ffd5b505050506040513d601f19601f82011682018060405250810190610eaa91906118e4565b610f045760405162461bcd60e51b815260206004820152602560248201527f566f74657220646f6573206e6f7420686f6c64206120536f756c626f756e64206044820152642a37b5b2b760d91b6064820152608401610541565b335f9081526005602052604090205460ff1615610f635760405162461bcd60e51b815260206004820152601860248201527f416c726561647920636f6d6d6974746564206120766f746500000000000000006044820152606401610541565b81610fa65760405162461bcd60e51b8152602060048201526013602482015272092dcecc2d8d2c840c6dedadad2e840d0c2e6d606b1b6044820152606401610541565b335f90815260046020908152604080832085905560059091528120805460ff19166001179055600a805491610fda8361173c565b909155505060405133907fd8333eeb60b5f1fb9e6e2c3c665fb5ec81dee6d37fcd17dda27d169009d6c7eb905f90a25050565b7ff66846415d2bf9eabda9e84793ff9c0ea96d87f50fc41e66aa16469c6a442f0561103781611258565b600280600154600160a01b900460ff16600381111561105857611058611657565b146110755760405162461bcd60e51b8152600401610541906116e2565b6008544210156110c75760405162461bcd60e51b815260206004820152601a60248201527f52657665616c207068617365206e6f742079657420656e6465640000000000006044820152606401610541565b6001805460ff60a01b1916600360a01b17908190556040517f82aa0cc22cbb103bd5f28a40c65b9e63f2df333bbb70c6c9128eb83d7cb1041d9161111691600160a01b90910460ff16906116d4565b60405180910390a15050565b5f918252602082815260408084206001600160a01b0393909316845291905290205460ff1690565b600180600154600160a01b900460ff16600381111561116b5761116b611657565b146111885760405162461bcd60e51b8152600401610541906116e2565b6007544210156111da5760405162461bcd60e51b815260206004820152601a60248201527f436f6d6d6974207068617365206e6f742079657420656e6465640000000000006044820152606401610541565b6001805460ff60a01b1916600160a11b17908190556040517f82aa0cc22cbb103bd5f28a40c65b9e63f2df333bbb70c6c9128eb83d7cb1041d9161122991600160a01b90910460ff16906116d4565b60405180910390a150565b5f8281526020819052604090206001015461124e81611258565b61063083836112f4565b611262813361135d565b50565b5f6112708383611122565b6112ed575f838152602081815260408083206001600160a01b03861684529091529020805460ff191660011790556112a53390565b6001600160a01b0316826001600160a01b0316847f2f8788117e7eff1d82e926ec794901d17c78024a50270940304540a733656f0d60405160405180910390a45060016104d4565b505f6104d4565b5f6112ff8383611122565b156112ed575f838152602081815260408083206001600160a01b0386168085529252808320805460ff1916905551339286917ff6391f5c32d9c69d2a47ea670b442974b53935d1edc7fd64eb21e047a839171b9190a45060016104d4565b6113678282611122565b6113965760405163e2517d3f60e01b81526001600160a01b038216600482015260248101839052604401610541565b5050565b5f602082840312156113aa575f5ffd5b81356001600160e01b0319811681146113c1575f5ffd5b9392505050565b5f602082840312156113d8575f5ffd5b5035919050565b634e487b7160e01b5f52604160045260245ffd5b5f82601f830112611402575f5ffd5b813567ffffffffffffffff81111561141c5761141c6113df565b604051601f8201601f19908116603f0116810167ffffffffffffffff8111828210171561144b5761144b6113df565b604052818152838201602001851015611462575f5ffd5b816020850160208301375f918101602001919091529392505050565b5f5f6040838503121561148f575f5ffd5b823567ffffffffffffffff8111156114a5575f5ffd5b6114b1858286016113f3565b925050602083013567ffffffffffffffff8111156114cd575f5ffd5b6114d9858286016113f3565b9150509250929050565b80356001600160a01b03811681146114f9575f5ffd5b919050565b5f5f6040838503121561150f575f5ffd5b8235915061151f602084016114e3565b90509250929050565b5f81518084528060208401602086015e5f602082860101526020601f19601f83011685010191505092915050565b848152608060208201525f61156e6080830186611528565b82810360408401526115808186611528565b91505082606083015295945050505050565b5f5f5f606084860312156115a4575f5ffd5b8335925060208401359150604084013567ffffffffffffffff8111156115c8575f5ffd5b6115d4868287016113f3565b9150509250925092565b60208152815160208201525f60208301516080604084015261160360a0840182611528565b90506040840151601f198483030160608501526116208282611528565b915050606084015160808401528091505092915050565b5f5f60408385031215611648575f5ffd5b50508035926020909101359150565b634e487b7160e01b5f52602160045260245ffd5b6004811061168757634e487b7160e01b5f52602160045260245ffd5b9052565b60a08101611699828861166b565b8560208301528460408301528360608301528260808301529695505050505050565b5f602082840312156116cb575f5ffd5b6113c1826114e3565b602081016104d4828461166b565b60208082526026908201527f496e76616c696420656c656374696f6e20737461746520666f7220746869732060408201526530b1ba34b7b760d11b606082015260800190565b634e487b7160e01b5f52601160045260245ffd5b5f6001820161174d5761174d611728565b5060010190565b600181811c9082168061176857607f821691505b60208210810361178657634e487b7160e01b5f52602260045260245ffd5b50919050565b601f821115610c2b57805f5260205f20601f840160051c810160208510156117b15750805b601f840160051c820191505b818110156117d0575f81556001016117bd565b5050505050565b815167ffffffffffffffff8111156117f1576117f16113df565b611805816117ff8454611754565b8461178c565b6020601f821160018114611837575f83156118205750848201515b5f19600385901b1c1916600184901b1784556117d0565b5f84815260208120601f198516915b828110156118665787850151825560209485019460019092019101611846565b508482101561188357868401515f19600387901b60f8161c191681555b50505050600190811b01905550565b604081525f6118a46040830185611528565b82810360208401526118b68185611528565b95945050505050565b602081525f6113c16020830184611528565b808201808211156104d4576104d4611728565b5f602082840312156118f4575f5ffd5b815180151581146113c1575f5ffdfea2646970667358221220bc3d4971c9ec9d9f600c891dae598d56704d37703f2fd92e80527d459a6984db64736f6c634300081b0033",
  "linkReferences": {},
  "deployedLinkReferences": {}
}