{
  "_format": "hh-sol-artifact-1",
  "contractName": "Election",
  "sourceName": "contracts/Election.sol",
  "abi": [
    {
      "inputs": [],
      "stateMutability": "nonpayable",
      "type": "constructor"
    },
    {
      "inputs": [],
      "name": "AccessControlBadConfirmation",
      "type": "error"
    },
    {
      "inputs": [
        {
          "internalType": "address",
          "name": "account",
          "type": "address"
        },
        {
          "internalType": "bytes32",
          "name": "neededRole",
          "type": "bytes32"
        }
      ],
      "name": "AccessControlUnauthorizedAccount",
      "type": "error"
    },
    {
      "anonymous": false,
      "inputs": [
        {
          "indexed": true,
          "internalType": "uint256",
          "name": "candidateId",
          "type": "uint256"
        },
        {
          "indexed": false,
          "internalType": "string",
          "name": "name",
          "type": "string"
        },
        {
          "indexed": false,
          "internalType": "string",
          "name": "imageCID",
          "type": "string"
        }
      ],
      "name": "CandidateAdded",
      "type": "event"
    },
    {
      "anonymous": false,
      "inputs": [
        {
          "indexed": false,
          "internalType": "enum Election.ElectionState",
          "name": "newState",
          "type": "uint8"
        }
      ],
      "name": "ElectionStateChanged",
      "type": "event"
    },
    {
      "anonymous": false,
      "inputs": [
        {
          "indexed": true,
          "internalType": "bytes32",
          "name": "role",
          "type": "bytes32"
        },
        {
          "indexed": true,
          "internalType": "bytes32",
          "name": "previousAdminRole",
          "type": "bytes32"
        },
        {
          "indexed": true,
          "internalType": "bytes32",
          "name": "newAdminRole",
          "type": "bytes32"
        }
      ],
      "name": "RoleAdminChanged",
      "type": "event"
    },
    {
      "anonymous": false,
      "inputs": [
        {
          "indexed": true,
          "internalType": "bytes32",
          "name": "role",
          "type": "bytes32"
        },
        {
          "indexed": true,
          "internalType": "address",
          "name": "account",
          "type": "address"
        },
        {
          "indexed": true,
          "internalType": "address",
          "name": "sender",
          "type": "address"
        }
      ],
      "name": "RoleGranted",
      "type": "event"
    },
    {
      "anonymous": false,
      "inputs": [
        {
          "indexed": true,
          "internalType": "bytes32",
          "name": "role",
          "type": "bytes32"
        },
        {
          "indexed": true,
          "internalType": "address",
          "name": "account",
          "type": "address"
        },
        {
          "indexed": true,
          "internalType": "address",
          "name": "sender",
          "type": "address"
        }
      ],
      "name": "RoleRevoked",
      "type": "event"
    },
    {
      "anonymous": false,
      "inputs": [
        {
          "indexed": true,
          "internalType": "address",
          "name": "voterAddress",
          "type": "address"
        },
        {
          "indexed": true,
          "internalType": "uint256",
          "name": "candidateId",
          "type": "uint256"
        }
      ],
      "name": "VoteCasted",
      "type": "event"
    },
    {
      "anonymous": false,
      "inputs": [
        {
          "indexed": true,
          "internalType": "address",
          "name": "voterAddress",
          "type": "address"
        }
      ],
      "name": "VoterRegistered",
      "type": "event"
    },
    {
      "inputs": [],
      "name": "DEFAULT_ADMIN_ROLE",
      "outputs": [
        {
          "internalType": "bytes32",
          "name": "",
          "type": "bytes32"
        }
      ],
      "stateMutability": "view",
      "type": "function"
    },
    {
      "inputs": [],
      "name": "ELECTION_MANAGER_ROLE",
      "outputs": [
        {
          "internalType": "bytes32",
          "name": "",
          "type": "bytes32"
        }
      ],
      "stateMutability": "view",
      "type": "function"
    },
    {
      "inputs": [
        {
          "internalType": "string",
          "name": "_name",
          "type": "string"
        },
        {
          "internalType": "string",
          "name": "_imageCID",
          "type": "string"
        }
      ],
      "name": "addCandidate",
      "outputs": [],
      "stateMutability": "nonpayable",
      "type": "function"
    },
    {
      "inputs": [
        {
          "internalType": "uint256",
          "name": "",
          "type": "uint256"
        }
      ],
      "name": "candidates",
      "outputs": [
        {
          "internalType": "uint256",
          "name": "id",
          "type": "uint256"
        },
        {
          "internalType": "string",
          "name": "name",
          "type": "string"
        },
        {
          "internalType": "string",
          "name": "imageCID",
          "type": "string"
        },
        {
          "internalType": "uint256",
          "name": "voteCount",
          "type": "uint256"
        }
      ],
      "stateMutability": "view",
      "type": "function"
    },
    {
      "inputs": [],
      "name": "candidatesCount",
      "outputs": [
        {
          "internalType": "uint256",
          "name": "",
          "type": "uint256"
        }
      ],
      "stateMutability": "view",
      "type": "function"
    },
    {
      "inputs": [],
      "name": "endElection",
      "outputs": [],
      "stateMutability": "nonpayable",
      "type": "function"
    },
    {
      "inputs": [
        {
          "internalType": "uint256",
          "name": "_candidateId",
          "type": "uint256"
        }
      ],
      "name": "getCandidate",
      "outputs": [
        {
          "components": [
            {
              "internalType": "uint256",
              "name": "id",
              "type": "uint256"
            },
            {
              "internalType": "string",
              "name": "name",
              "type": "string"
            },
            {
              "internalType": "string",
              "name": "imageCID",
              "type": "string"
            },
            {
              "internalType": "uint256",
              "name": "voteCount",
              "type": "uint256"
            }
          ],
          "internalType": "struct Election.Candidate",
          "name": "",
          "type": "tuple"
        }
      ],
      "stateMutability": "view",
      "type": "function"
    },
    {
      "inputs": [
        {
          "internalType": "bytes32",
          "name": "role",
          "type": "bytes32"
        }
      ],
      "name": "getRoleAdmin",
      "outputs": [
        {
          "internalType": "bytes32",
          "name": "",
          "type": "bytes32"
        }
      ],
      "stateMutability": "view",
      "type": "function"
    },
    {
      "inputs": [
        {
          "internalType": "bytes32",
          "name": "role",
          "type": "bytes32"
        },
        {
          "internalType": "address",
          "name": "account",
          "type": "address"
        }
      ],
      "name": "grantRole",
      "outputs": [],
      "stateMutability": "nonpayable",
      "type": "function"
    },
    {
      "inputs": [
        {
          "internalType": "bytes32",
          "name": "role",
          "type": "bytes32"
        },
        {
          "internalType": "address",
          "name": "account",
          "type": "address"
        }
      ],
      "name": "hasRole",
      "outputs": [
        {
          "internalType": "bool",
          "name": "",
          "type": "bool"
        }
      ],
      "stateMutability": "view",
      "type": "function"
    },
    {
      "inputs": [
        {
          "internalType": "address",
          "name": "_voterAddress",
          "type": "address"
        }
      ],
      "name": "registerVoter",
      "outputs": [],
      "stateMutability": "nonpayable",
      "type": "function"
    },
    {
      "inputs": [
        {
          "internalType": "bytes32",
          "name": "role",
          "type": "bytes32"
        },
        {
          "internalType": "address",
          "name": "callerConfirmation",
          "type": "address"
        }
      ],
      "name": "renounceRole",
      "outputs": [],
      "stateMutability": "nonpayable",
      "type": "function"
    },
    {
      "inputs": [
        {
          "internalType": "bytes32",
          "name": "role",
          "type": "bytes32"
        },
        {
          "internalType": "address",
          "name": "account",
          "type": "address"
        }
      ],
      "name": "revokeRole",
      "outputs": [],
      "stateMutability": "nonpayable",
      "type": "function"
    },
    {
      "inputs": [],
      "name": "startElection",
      "outputs": [],
      "stateMutability": "nonpayable",
      "type": "function"
    },
    {
      "inputs": [],
      "name": "state",
      "outputs": [
        {
          "internalType": "enum Election.ElectionState",
          "name": "",
          "type": "uint8"
        }
      ],
      "stateMutability": "view",
      "type": "function"
    },
    {
      "inputs": [
        {
          "internalType": "bytes4",
          "name": "interfaceId",
          "type": "bytes4"
        }
      ],
      "name": "supportsInterface",
      "outputs": [
        {
          "internalType": "bool",
          "name": "",
          "type": "bool"
        }
      ],
      "stateMutability": "view",
      "type": "function"
    },
    {
      "inputs": [],
      "name": "totalVotes",
      "outputs": [
        {
          "internalType": "uint256",
          "name": "",
          "type": "uint256"
        }
      ],
      "stateMutability": "view",
      "type": "function"
    },
    {
      "inputs": [
        {
          "internalType": "uint256",
          "name": "_candidateId",
          "type": "uint256"
        }
      ],
      "name": "vote",
      "outputs": [],
      "stateMutability": "nonpayable",
      "type": "function"
    },
    {
      "inputs": [
        {
          "internalType": "address",
          "name": "",
          "type": "address"
        }
      ],
      "name": "voters",
      "outputs": [
        {
          "internalType": "bool",
          "name": "isRegistered",
          "type": "bool"
        },
        {
          "internalType": "bool",
          "name": "hasVoted",
          "type": "bool"
        },
        {
          "internalType": "uint256",
          "name": "votedCandidateId",
          "type": "uint256"
        }
      ],
      "stateMutability": "view",
      "type": "function"
    }
  ],
  "bytecode": "0x608060405234801561001057600080fd5b5061001c600033610057565b506100477f7378a0511133229f838d56e2f9c6feccdff7b4cf063897a326e203a88bfc5cb933610057565b506001805460ff19169055610103565b6000828152602081815260408083206001600160a01b038516845290915281205460ff166100f9576000838152602081815260408083206001600160a01b03861684529091529020805460ff191660011790556100b13390565b6001600160a01b0316826001600160a01b0316847f2f8788117e7eff1d82e926ec794901d17c78024a50270940304540a733656f0d60405160405180910390a45060016100fd565b5060005b92915050565b611238806101126000396000f3fe608060405234801561001057600080fd5b50600436106101215760003560e01c806336568abe116100ad578063a217fddf11610071578063a217fddf14610258578063a3ec138d14610260578063c19d93fb146102b1578063cd080a67146102cb578063d547741f146102e057600080fd5b806336568abe1461020f57806338db6dd31461022257806359f784681461023557806362d73eb81461023d57806391d148541461024557600080fd5b806326541b56116100f457806326541b561461019d5780632d35a8a2146101b05780632f2ff15d146101b95780633477ee2e146101cc57806335b8e820146101ef57600080fd5b80630121b93f1461012657806301ffc9a71461013b5780630d15fd7714610163578063248a9ca31461017a575b600080fd5b610139610134366004610d30565b6102f3565b005b61014e610149366004610d49565b6104cc565b60405190151581526020015b60405180910390f35b61016c60055481565b60405190815260200161015a565b61016c610188366004610d30565b60009081526020819052604090206001015490565b6101396101ab366004610e1d565b610503565b61016c60035481565b6101396101c7366004610e9d565b610616565b6101df6101da366004610d30565b610641565b60405161015a9493929190610f0f565b6102026101fd366004610d30565b61077a565b60405161015a9190610f4c565b61013961021d366004610e9d565b610957565b610139610230366004610fa6565b61098f565b610139610a95565b610139610b3b565b61014e610253366004610e9d565b610b9b565b61016c600081565b61029461026e366004610fa6565b6004602052600090815260409020805460019091015460ff808316926101009004169083565b60408051931515845291151560208401529082015260600161015a565b6001546102be9060ff1681565b60405161015a9190610fd7565b61016c6000805160206111e383398151915281565b6101396102ee366004610e9d565b610bc4565b60018060015460ff16600281111561030d5761030d610fc1565b146103335760405162461bcd60e51b815260040161032a90610fff565b60405180910390fd5b3360009081526004602052604090205460ff166103895760405162461bcd60e51b8152602060048201526014602482015273159bdd195c881b9bdd081c9959da5cdd195c995960621b604482015260640161032a565b33600090815260046020526040902054610100900460ff16156103ee5760405162461bcd60e51b815260206004820152601760248201527f566f7465722068617320616c726561647920766f746564000000000000000000604482015260640161032a565b60008211801561040057506003548211155b6104435760405162461bcd60e51b8152602060048201526014602482015273125b9d985b1a590818d85b991a59185d1948125160621b604482015260640161032a565b336000908152600460209081526040808320805461ff0019166101001781556001018590558483526002909152812060030180549161048183611045565b90915550506005805490600061049683611045565b9091555050604051829033907fd0e6c39f2e086dc49f1524b47725526a56945cd1ff661f37976f1725a1e5698690600090a35050565b60006001600160e01b03198216637965db0b60e01b14806104fd57506301ffc9a760e01b6001600160e01b03198316145b92915050565b6000805160206111e383398151915261051b81610be9565b60008060015460ff16600281111561053557610535610fc1565b146105525760405162461bcd60e51b815260040161032a90610fff565b6003805490600061056283611045565b9091555050604080516080810182526003548082526020808301888152838501889052600060608501819052928352600290915292902081518155915190919060018201906105b190826110f4565b50604082015160028201906105c690826110f4565b50606082015181600301559050506003547fe64f834082661dd9ed89427b87edb6270fd6dad17198b0938f0edd058914c87f85856040516106089291906111b4565b60405180910390a250505050565b60008281526020819052604090206001015461063181610be9565b61063b8383610bf6565b50505050565b600260205260009081526040902080546001820180549192916106639061106c565b80601f016020809104026020016040519081016040528092919081815260200182805461068f9061106c565b80156106dc5780601f106106b1576101008083540402835291602001916106dc565b820191906000526020600020905b8154815290600101906020018083116106bf57829003601f168201915b5050505050908060020180546106f19061106c565b80601f016020809104026020016040519081016040528092919081815260200182805461071d9061106c565b801561076a5780601f1061073f5761010080835404028352916020019161076a565b820191906000526020600020905b81548152906001019060200180831161074d57829003601f168201915b5050505050908060030154905084565b6107a56040518060800160405280600081526020016060815260200160608152602001600081525090565b6000821180156107b757506003548211155b6107fa5760405162461bcd60e51b8152602060048201526014602482015273125b9d985b1a590818d85b991a59185d1948125160621b604482015260640161032a565b60026000838152602001908152602001600020604051806080016040529081600082015481526020016001820180546108329061106c565b80601f016020809104026020016040519081016040528092919081815260200182805461085e9061106c565b80156108ab5780601f10610880576101008083540402835291602001916108ab565b820191906000526020600020905b81548152906001019060200180831161088e57829003601f168201915b505050505081526020016002820180546108c49061106c565b80601f01602080910402602001604051908101604052809291908181526020018280546108f09061106c565b801561093d5780601f106109125761010080835404028352916020019161093d565b820191906000526020600020905b81548152906001019060200180831161092057829003601f168201915b505050505081526020016003820154815250509050919050565b6001600160a01b03811633146109805760405163334bd91960e11b815260040160405180910390fd5b61098a8282610c88565b505050565b6000805160206111e38339815191526109a781610be9565b60008060015460ff1660028111156109c1576109c1610fc1565b146109de5760405162461bcd60e51b815260040161032a90610fff565b6001600160a01b03831660009081526004602052604090205460ff1615610a475760405162461bcd60e51b815260206004820152601860248201527f566f74657220616c726561647920726567697374657265640000000000000000604482015260640161032a565b6001600160a01b038316600081815260046020526040808220805460ff19166001179055517fb6be2187d059cc2a55fe29e0e503b566e1e0f8c8780096e185429350acffd3dd9190a2505050565b6000805160206111e3833981519152610aad81610be9565b60018060015460ff166002811115610ac757610ac7610fc1565b14610ae45760405162461bcd60e51b815260040161032a90610fff565b600180546002919060ff191681835b02179055506001546040517f82aa0cc22cbb103bd5f28a40c65b9e63f2df333bbb70c6c9128eb83d7cb1041d91610b2f9160ff90911690610fd7565b60405180910390a15050565b6000805160206111e3833981519152610b5381610be9565b60008060015460ff166002811115610b6d57610b6d610fc1565b14610b8a5760405162461bcd60e51b815260040161032a90610fff565b60018054819060ff19168180610af3565b6000918252602082815260408084206001600160a01b0393909316845291905290205460ff1690565b600082815260208190526040902060010154610bdf81610be9565b61063b8383610c88565b610bf38133610cf3565b50565b6000610c028383610b9b565b610c80576000838152602081815260408083206001600160a01b03861684529091529020805460ff19166001179055610c383390565b6001600160a01b0316826001600160a01b0316847f2f8788117e7eff1d82e926ec794901d17c78024a50270940304540a733656f0d60405160405180910390a45060016104fd565b5060006104fd565b6000610c948383610b9b565b15610c80576000838152602081815260408083206001600160a01b0386168085529252808320805460ff1916905551339286917ff6391f5c32d9c69d2a47ea670b442974b53935d1edc7fd64eb21e047a839171b9190a45060016104fd565b610cfd8282610b9b565b610d2c5760405163e2517d3f60e01b81526001600160a01b03821660048201526024810183905260440161032a565b5050565b600060208284031215610d4257600080fd5b5035919050565b600060208284031215610d5b57600080fd5b81356001600160e01b031981168114610d7357600080fd5b9392505050565b634e487b7160e01b600052604160045260246000fd5b600082601f830112610da157600080fd5b813567ffffffffffffffff80821115610dbc57610dbc610d7a565b604051601f8301601f19908116603f01168101908282118183101715610de457610de4610d7a565b81604052838152866020858801011115610dfd57600080fd5b836020870160208301376000602085830101528094505050505092915050565b60008060408385031215610e3057600080fd5b823567ffffffffffffffff80821115610e4857600080fd5b610e5486838701610d90565b93506020850135915080821115610e6a57600080fd5b50610e7785828601610d90565b9150509250929050565b80356001600160a01b0381168114610e9857600080fd5b919050565b60008060408385031215610eb057600080fd5b82359150610ec060208401610e81565b90509250929050565b6000815180845260005b81811015610eef57602081850181015186830182015201610ed3565b506000602082860101526020601f19601f83011685010191505092915050565b848152608060208201526000610f286080830186610ec9565b8281036040840152610f3a8186610ec9565b91505082606083015295945050505050565b60208152815160208201526000602083015160806040840152610f7260a0840182610ec9565b90506040840151601f19848303016060850152610f8f8282610ec9565b915050606084015160808401528091505092915050565b600060208284031215610fb857600080fd5b610d7382610e81565b634e487b7160e01b600052602160045260246000fd5b6020810160038310610ff957634e487b7160e01b600052602160045260246000fd5b91905290565b60208082526026908201527f496e76616c696420656c656374696f6e20737461746520666f7220746869732060408201526530b1ba34b7b760d11b606082015260800190565b60006001820161106557634e487b7160e01b600052601160045260246000fd5b5060010190565b600181811c9082168061108057607f821691505b6020821081036110a057634e487b7160e01b600052602260045260246000fd5b50919050565b601f82111561098a57600081815260208120601f850160051c810160208610156110cd5750805b601f850160051c820191505b818110156110ec578281556001016110d9565b505050505050565b815167ffffffffffffffff81111561110e5761110e610d7a565b6111228161111c845461106c565b846110a6565b602080601f831160018114611157576000841561113f5750858301515b600019600386901b1c1916600185901b1785556110ec565b600085815260208120601f198616915b8281101561118657888601518255948401946001909101908401611167565b50858210156111a45787850151600019600388901b60f8161c191681555b5050505050600190811b01905550565b6040815260006111c76040830185610ec9565b82810360208401526111d98185610ec9565b9594505050505056fe7378a0511133229f838d56e2f9c6feccdff7b4cf063897a326e203a88bfc5cb9a2646970667358221220828d1f11ed646a931708447ac537630506e9de048aea428bfd9b67640c54c40a64736f6c63430008140033",
  "linkReferences": {},
  "deployedLinkReferences": {}
}